{
  "contractName": "Coin",
  "abi": [
    {
      "inputs": [],
      "stateMutability": "nonpayable",
      "type": "constructor"
    },
    {
      "inputs": [
        {
          "internalType": "uint256",
          "name": "requested",
          "type": "uint256"
        },
        {
          "internalType": "uint256",
          "name": "available",
          "type": "uint256"
        }
      ],
      "name": "InsufficientBalance",
      "type": "error"
    },
    {
      "anonymous": false,
      "inputs": [
        {
          "indexed": false,
          "internalType": "address",
          "name": "from",
          "type": "address"
        },
        {
          "indexed": false,
          "internalType": "address",
          "name": "to",
          "type": "address"
        },
        {
          "indexed": false,
          "internalType": "uint256",
          "name": "amount",
          "type": "uint256"
        }
      ],
      "name": "Sent",
      "type": "event"
    },
    {
      "inputs": [
        {
          "internalType": "address",
          "name": "",
          "type": "address"
        }
      ],
      "name": "balances",
      "outputs": [
        {
          "internalType": "uint256",
          "name": "",
          "type": "uint256"
        }
      ],
      "stateMutability": "view",
      "type": "function",
      "constant": true
    },
    {
      "inputs": [],
      "name": "minter",
      "outputs": [
        {
          "internalType": "address",
          "name": "",
          "type": "address"
        }
      ],
      "stateMutability": "view",
      "type": "function",
      "constant": true
    },
    {
      "inputs": [],
      "name": "getBalances",
      "outputs": [
        {
          "internalType": "uint256",
          "name": "",
          "type": "uint256"
        }
      ],
      "stateMutability": "view",
      "type": "function",
      "constant": true
    },
    {
      "inputs": [
        {
          "internalType": "address",
          "name": "receiver",
          "type": "address"
        },
        {
          "internalType": "uint256",
          "name": "amount",
          "type": "uint256"
        }
      ],
      "name": "mint",
      "outputs": [],
      "stateMutability": "nonpayable",
      "type": "function"
    },
    {
      "inputs": [
        {
          "internalType": "address",
          "name": "receiver",
          "type": "address"
        },
        {
          "internalType": "uint256",
          "name": "amount",
          "type": "uint256"
        }
      ],
      "name": "send",
      "outputs": [],
      "stateMutability": "nonpayable",
      "type": "function"
    }
  ],
  "bytecode": "0x608060405234801561001057600080fd5b50336000806101000a81548173ffffffffffffffffffffffffffffffffffffffff021916908373ffffffffffffffffffffffffffffffffffffffff1602179055506106a6806100606000396000f3fe608060405234801561001057600080fd5b50600436106100565760003560e01c8062113e081461005b578063075461721461007957806327e235e31461009757806340c10f19146100c7578063d0679d34146100e3575b600080fd5b6100636100ff565b6040516100709190610416565b60405180910390f35b61008161015f565b60405161008e9190610472565b60405180910390f35b6100b160048036038101906100ac91906104be565b610183565b6040516100be9190610416565b60405180910390f35b6100e160048036038101906100dc9190610517565b61019b565b005b6100fd60048036038101906100f89190610517565b61024d565b005b600080733411c400f69db12aee669d2bf1237e19ecc2f2c89050600160008273ffffffffffffffffffffffffffffffffffffffff1673ffffffffffffffffffffffffffffffffffffffff1681526020019081526020016000205491505090565b60008054906101000a900473ffffffffffffffffffffffffffffffffffffffff1681565b60016020528060005260406000206000915090505481565b60008054906101000a900473ffffffffffffffffffffffffffffffffffffffff1673ffffffffffffffffffffffffffffffffffffffff163373ffffffffffffffffffffffffffffffffffffffff16146101f357600080fd5b80600160008473ffffffffffffffffffffffffffffffffffffffff1673ffffffffffffffffffffffffffffffffffffffff16815260200190815260200160002060008282546102429190610586565b925050819055505050565b600160003373ffffffffffffffffffffffffffffffffffffffff1673ffffffffffffffffffffffffffffffffffffffff168152602001908152602001600020548111156103125780600160003373ffffffffffffffffffffffffffffffffffffffff1673ffffffffffffffffffffffffffffffffffffffff168152602001908152602001600020546040517fcf4791810000000000000000000000000000000000000000000000000000000081526004016103099291906105dc565b60405180910390fd5b80600160003373ffffffffffffffffffffffffffffffffffffffff1673ffffffffffffffffffffffffffffffffffffffff16815260200190815260200160002060008282546103619190610605565b9250508190555080600160008473ffffffffffffffffffffffffffffffffffffffff1673ffffffffffffffffffffffffffffffffffffffff16815260200190815260200160002060008282546103b79190610586565b925050819055507f3990db2d31862302a685e8086b5755072a6e2b5b780af1ee81ece35ee3cd33453383836040516103f193929190610639565b60405180910390a15050565b6000819050919050565b610410816103fd565b82525050565b600060208201905061042b6000830184610407565b92915050565b600073ffffffffffffffffffffffffffffffffffffffff82169050919050565b600061045c82610431565b9050919050565b61046c81610451565b82525050565b60006020820190506104876000830184610463565b92915050565b600080fd5b61049b81610451565b81146104a657600080fd5b50565b6000813590506104b881610492565b92915050565b6000602082840312156104d4576104d361048d565b5b60006104e2848285016104a9565b91505092915050565b6104f4816103fd565b81146104ff57600080fd5b50565b600081359050610511816104eb565b92915050565b6000806040838503121561052e5761052d61048d565b5b600061053c858286016104a9565b925050602061054d85828601610502565b9150509250929050565b7f4e487b7100000000000000000000000000000000000000000000000000000000600052601160045260246000fd5b6000610591826103fd565b915061059c836103fd565b9250827fffffffffffffffffffffffffffffffffffffffffffffffffffffffffffffffff038211156105d1576105d0610557565b5b828201905092915050565b60006040820190506105f16000830185610407565b6105fe6020830184610407565b9392505050565b6000610610826103fd565b915061061b836103fd565b92508282101561062e5761062d610557565b5b828203905092915050565b600060608201905061064e6000830186610463565b61065b6020830185610463565b6106686040830184610407565b94935050505056fea2646970667358221220f9d0b91fbf9e44c7ad6a344a9b426533fe5cb1f4601a0a94d49d18fd70c4c5f964736f6c634300080e0033",
  "immutableReferences": {},
  "source": "// SPDX-License-Identifier: GPL-3.0\npragma solidity ^0.8.4;\n\ncontract Coin {\n    // The keyword \"public\" makes variables\n    // accessible from other contracts\n    address public minter;\n    mapping (address => uint) public balances;\n\n    // Events allow clients to react to specific\n    // contract changes you declare\n    event Sent(address from, address to, uint amount);\n\n    // Constructor code is only run when the contract\n    // is created\n    constructor() {\n        minter = msg.sender;\n    }\n\n\n    function getBalances() external view returns (uint) {\n            address account = address(0x3411c400f69dB12AEE669d2BF1237E19EcC2f2c8);\n\n    return balances[account];\n}\n\n    // Sends an amount of newly created coins to an address\n    // Can only be called by the contract creator\n    function mint(address receiver, uint amount) public {\n        require(msg.sender == minter);\n        balances[receiver] += amount;\n    }\n\n    \n    \n\n\n    // Errors allow you to provide information about\n    // why an operation failed. They are returned\n    // to the caller of the function.\n    error InsufficientBalance(uint requested, uint available);\n\n    // Sends an amount of existing coins\n    // from any caller to an address\n    function send(address receiver, uint amount) public {\n        if (amount > balances[msg.sender])\n            revert InsufficientBalance({\n                requested: amount,\n                available: balances[msg.sender]\n            });\n\n        balances[msg.sender] -= amount;\n        balances[receiver] += amount;\n        emit Sent(msg.sender, receiver, amount);\n    }\n}",
  "sourcePath": "/home/bruh/Desktop/truffle_react_test/contracts/Coin.sol",
  "compiler": {
    "name": "solc",
    "version": "0.8.14+commit.80d49f37.Emscripten.clang"
  },
  "schemaVersion": "3.4.7",
  "updatedAt": "2022-06-09T12:15:49.105Z",
  "networkType": "ethereum",
  "devdoc": {
    "kind": "dev",
    "methods": {},
    "version": 1
  },
  "userdoc": {
    "kind": "user",
    "methods": {},
    "version": 1
  }
}