{
  "contractName": "SimpleStorage",
  "abi": [
    {
      "constant": false,
      "inputs": [
        {
          "internalType": "uint256",
          "name": "x",
          "type": "uint256"
        }
      ],
      "name": "set",
      "outputs": [],
      "payable": false,
      "stateMutability": "nonpayable",
      "type": "function"
    },
    {
      "constant": false,
      "inputs": [
        {
          "internalType": "string",
          "name": "y",
          "type": "string"
        }
      ],
      "name": "setString",
      "outputs": [],
      "payable": false,
      "stateMutability": "nonpayable",
      "type": "function"
    },
    {
      "constant": false,
      "inputs": [
        {
          "internalType": "uint256",
          "name": "x",
          "type": "uint256"
        },
        {
          "internalType": "string",
          "name": "y",
          "type": "string"
        }
      ],
      "name": "doubleInput",
      "outputs": [],
      "payable": false,
      "stateMutability": "nonpayable",
      "type": "function"
    },
    {
      "constant": true,
      "inputs": [],
      "name": "get",
      "outputs": [
        {
          "internalType": "uint256",
          "name": "",
          "type": "uint256"
        }
      ],
      "payable": false,
      "stateMutability": "view",
      "type": "function"
    },
    {
      "constant": true,
      "inputs": [],
      "name": "getString",
      "outputs": [
        {
          "internalType": "string",
          "name": "",
          "type": "string"
        }
      ],
      "payable": false,
      "stateMutability": "view",
      "type": "function"
    },
    {
      "constant": true,
      "inputs": [],
      "name": "doubleOutput",
      "outputs": [
        {
          "internalType": "uint256",
          "name": "",
          "type": "uint256"
        },
        {
          "internalType": "string",
          "name": "",
          "type": "string"
        }
      ],
      "payable": false,
      "stateMutability": "view",
      "type": "function"
    }
  ],
  "bytecode": "0x608060405234801561001057600080fd5b506105b8806100206000396000f3fe608060405234801561001057600080fd5b50600436106100625760003560e01c806319cde7821461006757806360fe47b1146100f15780636d4ce63c1461011f5780637fcaf6661461013d57806389ea642f146101f8578063f07564101461027b575b600080fd5b61006f610340565b6040518083815260200180602001828103825283818151815260200191508051906020019080838360005b838110156100b557808201518184015260208101905061009a565b50505050905090810190601f1680156100e25780820380516001836020036101000a031916815260200191505b50935050505060405180910390f35b61011d6004803603602081101561010757600080fd5b81019080803590602001909291905050506103ed565b005b6101276103f7565b6040518082815260200191505060405180910390f35b6101f66004803603602081101561015357600080fd5b810190808035906020019064010000000081111561017057600080fd5b82018360208201111561018257600080fd5b803590602001918460018302840111640100000000831117156101a457600080fd5b91908080601f016020809104026020016040519081016040528093929190818152602001838380828437600081840152601f19601f820116905080830192505050505050509192919290505050610400565b005b61020061041a565b6040518080602001828103825283818151815260200191508051906020019080838360005b83811015610240578082015181840152602081019050610225565b50505050905090810190601f16801561026d5780820380516001836020036101000a031916815260200191505b509250505060405180910390f35b61033e6004803603604081101561029157600080fd5b8101908080359060200190929190803590602001906401000000008111156102b857600080fd5b8201836020820111156102ca57600080fd5b803590602001918460018302840111640100000000831117156102ec57600080fd5b91908080601f016020809104026020016040519081016040528093929190818152602001838380828437600081840152601f19601f8201169050808301925050505050505091929192905050506104bc565b005b600060606000546001808054600181600116156101000203166002900480601f0160208091040260200160405190810160405280929190818152602001828054600181600116156101000203166002900480156103de5780601f106103b3576101008083540402835291602001916103de565b820191906000526020600020905b8154815290600101906020018083116103c157829003601f168201915b50505050509050915091509091565b8060008190555050565b60008054905090565b80600190805190602001906104169291906104de565b5050565b606060018054600181600116156101000203166002900480601f0160208091040260200160405190810160405280929190818152602001828054600181600116156101000203166002900480156104b25780601f10610487576101008083540402835291602001916104b2565b820191906000526020600020905b81548152906001019060200180831161049557829003601f168201915b5050505050905090565b8160008190555080600190805190602001906104d99291906104de565b505050565b828054600181600116156101000203166002900490600052602060002090601f016020900481019282601f1061051f57805160ff191683800117855561054d565b8280016001018555821561054d579182015b8281111561054c578251825591602001919060010190610531565b5b50905061055a919061055e565b5090565b61058091905b8082111561057c576000816000905550600101610564565b5090565b9056fea265627a7a72315820555a01710b5140dfca54c172dc8e702ffb8000e33303b3ef97299831866e990564736f6c63430005100032",
  "source": "// SPDX-License-Identifier: MIT\npragma solidity >=0.4.21 <8.10.0;\n\ncontract SimpleStorage {\n  uint storedData;\n  string data;\n\n  function set(uint x) public {\n    storedData = x;\n  }\n\n  function setString(string memory y) public{\n    data = y;\n  }\n\n  function doubleInput(uint x, string memory y) public {\n        storedData = x;\n        data = y;\n\n  }\n\n  function get() public view returns (uint) {\n    return storedData;\n  }\n\n  function getString() public view returns (string memory){\n    return data;\n  }\n\n  function doubleOutput() public view returns(uint, string memory){\n    return (storedData, data);\n  }\n\n}\n",
  "sourcePath": "/home/bruh/Desktop/solidity_projects/truffle_react_proj/contracts/SimpleStorage.sol",
  "compiler": {
    "name": "solc",
    "version": "0.5.16+commit.9c3226ce.Emscripten.clang"
  },
  "schemaVersion": "3.4.7",
  "updatedAt": "2022-06-14T10:49:02.694Z",
  "networkType": "ethereum",
  "devdoc": {
    "methods": {}
  },
  "userdoc": {
    "methods": {}
  }
}